:020000020000FC
:040000000C940E004E
:100018000C94910004E00EBF0FE50DBF00E00ABB91
:1000280003EF07BB0FEF04BB0EEF01BB112722271D
:1000380033270E9467000E9463000E947200A89AFA
:1000480001E30CB90E9463005E9B0C9428005E9A41
:1000580001E00CB90E9463005E9B0C9430005E9A2C
:1000680006E00CB90E9463005E9B0C9438005E9A0F
:100078000CE60CB90E9463000E94720001E30CB9FF
:100088000E9463005E9B0C9446005E9A02E00CB9E5
:100098000E9463005E9B0C944E005E9A06E00CB9C9
:1000A8000E9463005E9B0C9456005E9A09E30CB9AB
:1000B8000E946300A8980E9472000C9423005D9B24
:1000C8000C946300089500E000BD09E109B900E05F
:1000D8000BB906E800BD08E00AB908950DE003BFB2
:1000E80000E009BF0FEF0CBF00E00BBD0FE00ABD39
:1000F80000E00FBD09E00EBD00E109BF789428B704
:1001080021FF0C94830002E008BF00E003BF08BF92
:100118000CBF02BF20E0000008951FE3F894A99ADD
:0A01280000E109BF1FBF789418958D
:00000001FF
