:020000020000FC
:1000000004E00EBF0FE50DBF00E00ABB03EF07BB26
:100010000FEF04BB0EEF01BB1127222733270E94ED
:1000200059000E9455000E946400A89A01E30CB98F
:100030000E9455005E9B0C941A005E9A01E00CB978
:100040000E9455005E9B0C9422005E9A06E00CB95B
:100050000E9455005E9B0C942A005E9A0CE60CB937
:100060000E9455000E94640001E30CB90E945500F3
:100070005E9B0C9438005E9A02E00CB90E94550019
:100080005E9B0C9440005E9A06E00CB90E945500FD
:100090005E9B0C9448005E9A09E30CB90E945500DF
:1000A000A8980E9464000C9415005D9B0C94550068
:1000B000089500E000BD09E109B900E00BB906E8C8
:1000C00000BD08E00AB908950DE003BF00E009BFD4
:1000D0000FEF0CBF00E00FBD0FE00EBD0FEF0BBD2B
:1000E0000ABD28B721FF0C94710002E008BF00E0B0
:0E00F00003BF08BF0CBF02BF20E00000089550
:00000001FF
