:020000020000FC
:1000000004E00EBF0FE50DBF00E00ABB03EF07BB26
:100010000FEF04BB0EEF01BB1127222733270E94ED
:1000200057000E9453000E946200A89A01E30CB995
:100030000E9453005E9B0C941A005E9A01E00CB97A
:100040000E9453005E9B0C9422005E9A06E00CB95D
:100050000E9453005E9B0C942A005E9A0CE60CB939
:100060000E94530001E30CB90E9453005E9B0C9464
:1000700036005E9A02E00CB90E9453005E9B0C941D
:100080003E005E9A06E00CB90E9453005E9B0C9401
:1000900046005E9A09E30CB90E945300A8980E949A
:1000A00062000C9415005D9B0C945300089500E0D1
:1000B00000BD09E109B900E00BB906E800BD08E0A0
:1000C0000AB908950DE003BF00E009BF0FEF0CBFB0
:1000D00028B721FF0C94680002E008BF00E003BFCE
:0C00E00008BF0CBF02BF20E00000089524
:00000001FF
