:020000020000FC
:040000000C940E004E
:100018000C94540004E00EBF0FE50DBF00E00ABBCE
:1000280003EF07BB0FEF04BB0EEF01BB112722271D
:1000380033270E942D000E9429000E9449007894CD
:100048001127222733270C9424005D9B0C94290048
:10005800089500E000BD09E109B900E00BB906E820
:1000680000BD08E00AB908950DE003BF0FEF0CBF0B
:1000780028B721FF0C943C0008BF00E003BF08BF6D
:100088000CBF02BF20E00000089500E109BF0FEF98
:100098000BBD0FEF0ABD00E00FBD0DE00EBD0895CA
:1000A8001FE3F894A99A339531FF0C94B100A89AEC
:1000B80001E30CB90E9429005E9B0C9460005E9AD3
:1000C80001E00CB90E9429005E9B0C9468005E9ABE
:1000D80006E00CB90E9429005E9B0C9470005E9AA1
:1000E8000CE60CB90E9429000E9438000E943800D2
:1000F8000E9438000E9438000E9438000E94380090
:100108000E94380001E30CB90E9429005E9B0C9400
:100118008A005E9A02E00CB90E9429005E9B0C944A
:1001280092005E9A06E00CB90E9429005E9B0C942E
:100138009A005E9A09E30CB90E94290033270E94AD
:1001480038000E9438000E9438000E9438000E943F
:1001580038000E9438000E943800A8980E94380091
:1001680000E109BF0E942D000E9429000E94490059
:060178001FBF78941895EA
:00000001FF
