:020000020000FC
:040000000C940E004E
:100018000C94510004E00EBF0FE50DBF00E00ABBD1
:1000280003EF07BB0FEF04BB0EEF01BB112722271D
:1000380033270E942A000E9426000E9446007894D6
:100048000C9424005D9B0C942600089500E000BDEC
:1000580009E109B900E00BB906E800BD08E00AB9F2
:1000680008950DE003BF0FEF0CBF28B721FF0C94D4
:10007800390008BF00E003BF08BF0CBF02BF20E083
:100088000000089500E109BF0FEF0BBD0FEF0ABD97
:1000980000E00FBD0DE00EBD08951FE3F894A99A86
:1000A800339532FF0C949800A89A01E30CB90E948A
:1000B80026005E9B0C945D005E9A01E00CB90E94DC
:1000C80026005E9B0C9465005E9A06E00CB90E94BF
:1000D80026005E9B0C946D005E9A0CE60CB90E949B
:1000E80026000E9435000E9435000E94350001E379
:1000F8000CB90E9426005E9B0C947F005E9A02E079
:100108000CB90E9426005E9B0C9487005E9A06E05C
:100118000CB90E9426005E9B0C948F005E9A09E33E
:100128000CB90E9426003327A8980E94350000E1E8
:0801380009BF1FBF7894189560
:00000001FF
